{
  "contractName": "Funder",
  "abi": [
    {
      "inputs": [],
      "name": "msgp",
      "outputs": [
        {
          "internalType": "string",
          "name": "",
          "type": "string"
        }
      ],
      "stateMutability": "view",
      "type": "function",
      "constant": true
    },
    {
      "inputs": [],
      "name": "numOfFunders",
      "outputs": [
        {
          "internalType": "uint256",
          "name": "",
          "type": "uint256"
        }
      ],
      "stateMutability": "view",
      "type": "function",
      "constant": true
    },
    {
      "inputs": [
        {
          "internalType": "uint256",
          "name": "",
          "type": "uint256"
        }
      ],
      "name": "row",
      "outputs": [
        {
          "internalType": "string",
          "name": "",
          "type": "string"
        }
      ],
      "stateMutability": "view",
      "type": "function",
      "constant": true
    },
    {
      "inputs": [],
      "name": "getPid",
      "outputs": [
        {
          "internalType": "string",
          "name": "",
          "type": "string"
        }
      ],
      "stateMutability": "view",
      "type": "function",
      "constant": true
    },
    {
      "inputs": [
        {
          "internalType": "string",
          "name": "_msgp",
          "type": "string"
        }
      ],
      "name": "setPid",
      "outputs": [],
      "stateMutability": "nonpayable",
      "type": "function"
    },
    {
      "inputs": [],
      "name": "transfer",
      "outputs": [],
      "stateMutability": "payable",
      "type": "function",
      "payable": true
    },
    {
      "inputs": [
        {
          "internalType": "uint256",
          "name": "withdrawAmount",
          "type": "uint256"
        }
      ],
      "name": "withdraw",
      "outputs": [],
      "stateMutability": "nonpayable",
      "type": "function"
    }
  ],
  "bytecode": "0x608060405234801561001057600080fd5b50610920806100206000396000f3fe6080604052600436106100705760003560e01c80638a4068dd1161004e5780638a4068dd146101065780639ae3c1e214610110578063af7f2c9b14610139578063c87729631461016457610070565b80632e1a7d4d146100755780634f348b951461009e57806358e4cbbf146100db575b600080fd5b34801561008157600080fd5b5061009c6004803603810190610097919061058e565b61018f565b005b3480156100aa57600080fd5b506100c560048036038101906100c0919061058e565b610224565b6040516100d29190610654565b60405180910390f35b3480156100e757600080fd5b506100f06102d0565b6040516100fd9190610654565b60405180910390f35b61010e61035e565b005b34801561011c57600080fd5b50610137600480360381019061013291906107ab565b6103b3565b005b34801561014557600080fd5b5061014e610409565b60405161015b9190610803565b60405180910390f35b34801561017057600080fd5b5061017961040f565b6040516101869190610654565b60405180910390f35b671bc16d674ec800008111156101da576040517f08c379a00000000000000000000000000000000000000000000000000000000081526004016101d19061086a565b60405180910390fd5b3373ffffffffffffffffffffffffffffffffffffffff166108fc829081150290604051600060405180830381858888f19350505050158015610220573d6000803e3d6000fd5b5050565b6003818154811061023457600080fd5b90600052602060002001600091509050805461024f906108b9565b80601f016020809104026020016040519081016040528092919081815260200182805461027b906108b9565b80156102c85780601f1061029d576101008083540402835291602001916102c8565b820191906000526020600020905b8154815290600101906020018083116102ab57829003601f168201915b505050505081565b600280546102dd906108b9565b80601f0160208091040260200160405190810160405280929190818152602001828054610309906108b9565b80156103565780601f1061032b57610100808354040283529160200191610356565b820191906000526020600020905b81548152906001019060200180831161033957829003601f168201915b505050505081565b33600160008054815260200190815260200160002060006101000a81548173ffffffffffffffffffffffffffffffffffffffff021916908373ffffffffffffffffffffffffffffffffffffffff160217905550565b80600290805190602001906103c99291906104a1565b506003819080600181540180825580915050600190039060005260206000200160009091909190915090805190602001906104059291906104a1565b5050565b60005481565b60606002805461041e906108b9565b80601f016020809104026020016040519081016040528092919081815260200182805461044a906108b9565b80156104975780601f1061046c57610100808354040283529160200191610497565b820191906000526020600020905b81548152906001019060200180831161047a57829003601f168201915b5050505050905090565b8280546104ad906108b9565b90600052602060002090601f0160209004810192826104cf5760008555610516565b82601f106104e857805160ff1916838001178555610516565b82800160010185558215610516579182015b828111156105155782518255916020019190600101906104fa565b5b5090506105239190610527565b5090565b5b80821115610540576000816000905550600101610528565b5090565b6000604051905090565b600080fd5b600080fd5b6000819050919050565b61056b81610558565b811461057657600080fd5b50565b60008135905061058881610562565b92915050565b6000602082840312156105a4576105a361054e565b5b60006105b284828501610579565b91505092915050565b600081519050919050565b600082825260208201905092915050565b60005b838110156105f55780820151818401526020810190506105da565b83811115610604576000848401525b50505050565b6000601f19601f8301169050919050565b6000610626826105bb565b61063081856105c6565b93506106408185602086016105d7565b6106498161060a565b840191505092915050565b6000602082019050818103600083015261066e818461061b565b905092915050565b600080fd5b600080fd5b7f4e487b7100000000000000000000000000000000000000000000000000000000600052604160045260246000fd5b6106b88261060a565b810181811067ffffffffffffffff821117156106d7576106d6610680565b5b80604052505050565b60006106ea610544565b90506106f682826106af565b919050565b600067ffffffffffffffff82111561071657610715610680565b5b61071f8261060a565b9050602081019050919050565b82818337600083830152505050565b600061074e610749846106fb565b6106e0565b90508281526020810184848401111561076a5761076961067b565b5b61077584828561072c565b509392505050565b600082601f83011261079257610791610676565b5b81356107a284826020860161073b565b91505092915050565b6000602082840312156107c1576107c061054e565b5b600082013567ffffffffffffffff8111156107df576107de610553565b5b6107eb8482850161077d565b91505092915050565b6107fd81610558565b82525050565b600060208201905061081860008301846107f4565b92915050565b7f43616e6e6f74207769746864726177206d6f7265207468616e20322065746800600082015250565b6000610854601f836105c6565b915061085f8261081e565b602082019050919050565b6000602082019050818103600083015261088381610847565b9050919050565b7f4e487b7100000000000000000000000000000000000000000000000000000000600052602260045260246000fd5b600060028204905060018216806108d157607f821691505b6020821081036108e4576108e361088a565b5b5091905056fea2646970667358221220263110371f98281e076bb5946eea13424536172d9577aaa75db7289e2dd1f60f64736f6c634300080d0033",
  "immutableReferences": {},
  "source": "// SPDX-License-Identifier: MIT\r\npragma solidity >=0.4.22 <0.9.0;\r\n\r\n\r\ncontract Funder{\r\n    uint public numOfFunders;\r\n    mapping(uint=>address)  private funders;\r\n    string public msgp;\r\n    string[] public row;\r\n    \r\n    function getPid() public view returns (string memory)\r\n        {\r\n            return msgp;\r\n        }\r\n    function setPid(string memory _msgp) public\r\n    {\r\n        msgp = _msgp;\r\n        row.push(_msgp);\r\n    }\r\n    function transfer() external payable\r\n    {\r\n        funders[numOfFunders] = msg.sender;\r\n        \r\n\r\n    }\r\n\r\n    function withdraw(uint256 withdrawAmount ) external\r\n    {\r\n        require(withdrawAmount <= 2000000000000000000,\r\n        \"Cannot withdraw more than 2 eth\"\r\n        );\r\n        payable(msg.sender).transfer(withdrawAmount);\r\n    }\r\n}",
  "sourcePath": "C:\\Users\\Admin\\Desktop\\Web Projects\\NewMP\\contracts\\Funder.sol",
  "compiler": {
    "name": "solc",
    "version": "0.8.13+commit.abaa5c0e.Emscripten.clang"
  },
  "schemaVersion": "3.4.7",
  "updatedAt": "2022-05-20T21:39:32.809Z",
  "networkType": "ethereum",
  "devdoc": {
    "kind": "dev",
    "methods": {},
    "version": 1
  },
  "userdoc": {
    "kind": "user",
    "methods": {},
    "version": 1
  }
}