{
  "contractName": "Funder",
  "abi": [
    {
      "inputs": [],
      "name": "msgp",
      "outputs": [
        {
          "internalType": "string",
          "name": "",
          "type": "string"
        }
      ],
      "stateMutability": "view",
      "type": "function",
      "constant": true
    },
    {
      "inputs": [],
      "name": "numOfFunders",
      "outputs": [
        {
          "internalType": "uint256",
          "name": "",
          "type": "uint256"
        }
      ],
      "stateMutability": "view",
      "type": "function",
      "constant": true
    },
    {
      "stateMutability": "payable",
      "type": "receive",
      "payable": true
    },
    {
      "inputs": [
        {
          "internalType": "string",
          "name": "_msgp",
          "type": "string"
        }
      ],
      "name": "transfer",
      "outputs": [],
      "stateMutability": "payable",
      "type": "function",
      "payable": true
    },
    {
      "inputs": [
        {
          "internalType": "uint256",
          "name": "withdrawAmount",
          "type": "uint256"
        }
      ],
      "name": "withdraw",
      "outputs": [],
      "stateMutability": "nonpayable",
      "type": "function"
    }
  ],
  "bytecode": "0x608060405234801561001057600080fd5b506106ff806100206000396000f3fe6080604052600436106100435760003560e01c80632e1a7d4d1461004f57806358e4cbbf14610078578063a0258d0b146100a3578063af7f2c9b146100bf5761004a565b3661004a57005b600080fd5b34801561005b57600080fd5b506100766004803603810190610071919061036d565b6100ea565b005b34801561008457600080fd5b5061008d61017f565b60405161009a9190610433565b60405180910390f35b6100bd60048036038101906100b8919061058a565b61020d565b005b3480156100cb57600080fd5b506100d461027a565b6040516100e191906105e2565b60405180910390f35b671bc16d674ec80000811115610135576040517f08c379a000000000000000000000000000000000000000000000000000000000815260040161012c90610649565b60405180910390fd5b3373ffffffffffffffffffffffffffffffffffffffff166108fc829081150290604051600060405180830381858888f1935050505015801561017b573d6000803e3d6000fd5b5050565b6002805461018c90610698565b80601f01602080910402602001604051908101604052809291908181526020018280546101b890610698565b80156102055780601f106101da57610100808354040283529160200191610205565b820191906000526020600020905b8154815290600101906020018083116101e857829003601f168201915b505050505081565b33600160008054815260200190815260200160002060006101000a81548173ffffffffffffffffffffffffffffffffffffffff021916908373ffffffffffffffffffffffffffffffffffffffff1602179055508060029080519060200190610276929190610280565b5050565b60005481565b82805461028c90610698565b90600052602060002090601f0160209004810192826102ae57600085556102f5565b82601f106102c757805160ff19168380011785556102f5565b828001600101855582156102f5579182015b828111156102f45782518255916020019190600101906102d9565b5b5090506103029190610306565b5090565b5b8082111561031f576000816000905550600101610307565b5090565b6000604051905090565b600080fd5b600080fd5b6000819050919050565b61034a81610337565b811461035557600080fd5b50565b60008135905061036781610341565b92915050565b6000602082840312156103835761038261032d565b5b600061039184828501610358565b91505092915050565b600081519050919050565b600082825260208201905092915050565b60005b838110156103d45780820151818401526020810190506103b9565b838111156103e3576000848401525b50505050565b6000601f19601f8301169050919050565b60006104058261039a565b61040f81856103a5565b935061041f8185602086016103b6565b610428816103e9565b840191505092915050565b6000602082019050818103600083015261044d81846103fa565b905092915050565b600080fd5b600080fd5b7f4e487b7100000000000000000000000000000000000000000000000000000000600052604160045260246000fd5b610497826103e9565b810181811067ffffffffffffffff821117156104b6576104b561045f565b5b80604052505050565b60006104c9610323565b90506104d5828261048e565b919050565b600067ffffffffffffffff8211156104f5576104f461045f565b5b6104fe826103e9565b9050602081019050919050565b82818337600083830152505050565b600061052d610528846104da565b6104bf565b9050828152602081018484840111156105495761054861045a565b5b61055484828561050b565b509392505050565b600082601f83011261057157610570610455565b5b813561058184826020860161051a565b91505092915050565b6000602082840312156105a05761059f61032d565b5b600082013567ffffffffffffffff8111156105be576105bd610332565b5b6105ca8482850161055c565b91505092915050565b6105dc81610337565b82525050565b60006020820190506105f760008301846105d3565b92915050565b7f43616e6e6f74207769746864726177206d6f7265207468616e20322065746800600082015250565b6000610633601f836103a5565b915061063e826105fd565b602082019050919050565b6000602082019050818103600083015261066281610626565b9050919050565b7f4e487b7100000000000000000000000000000000000000000000000000000000600052602260045260246000fd5b600060028204905060018216806106b057607f821691505b6020821081036106c3576106c2610669565b5b5091905056fea264697066735822122079bae7e8fb1e1970d331eaac91653a26e04b4731e1f76e053d4758cba63232eb64736f6c634300080d0033",
  "immutableReferences": {},
  "source": "// SPDX-License-Identifier: MIT\r\npragma solidity >=0.4.22 <0.9.0;\r\n\r\n\r\ncontract Funder{\r\n    uint public numOfFunders;\r\n    mapping(uint=>address)  private funders;\r\n    string public msgp;\r\n    receive() external payable{}\r\n\r\n    function transfer(string memory _msgp) external payable\r\n    {\r\n        funders[numOfFunders] = msg.sender;\r\n        msgp = _msgp;\r\n\r\n    }\r\n\r\n    function withdraw(uint256 withdrawAmount ) external\r\n    {\r\n        require(withdrawAmount <= 2000000000000000000,\r\n        \"Cannot withdraw more than 2 eth\"\r\n        );\r\n        payable(msg.sender).transfer(withdrawAmount);\r\n    }\r\n}",
  "sourcePath": "C:\\Users\\Admin\\Desktop\\Web Projects\\NewMP\\contracts\\Funder.sol",
  "compiler": {
    "name": "solc",
    "version": "0.8.13+commit.abaa5c0e.Emscripten.clang"
  },
  "schemaVersion": "3.4.7",
  "updatedAt": "2022-05-10T14:54:05.499Z",
  "networkType": "ethereum",
  "devdoc": {
    "kind": "dev",
    "methods": {},
    "version": 1
  },
  "userdoc": {
    "kind": "user",
    "methods": {},
    "version": 1
  }
}